{
  "_format": "hh-sol-artifact-1",
  "contractName": "BuddhaNFT",
  "sourceName": "contracts/BuddhaNFT.sol",
  "abi": [
    {
      "inputs": [
        {
          "internalType": "string",
          "name": "baseURI",
          "type": "string"
        }
      ],
      "stateMutability": "nonpayable",
      "type": "constructor"
    },
    {
      "anonymous": false,
      "inputs": [
        {
          "indexed": true,
          "internalType": "address",
          "name": "owner",
          "type": "address"
        },
        {
          "indexed": true,
          "internalType": "address",
          "name": "approved",
          "type": "address"
        },
        {
          "indexed": true,
          "internalType": "uint256",
          "name": "tokenId",
          "type": "uint256"
        }
      ],
      "name": "Approval",
      "type": "event"
    },
    {
      "anonymous": false,
      "inputs": [
        {
          "indexed": true,
          "internalType": "address",
          "name": "owner",
          "type": "address"
        },
        {
          "indexed": true,
          "internalType": "address",
          "name": "operator",
          "type": "address"
        },
        {
          "indexed": false,
          "internalType": "bool",
          "name": "approved",
          "type": "bool"
        }
      ],
      "name": "ApprovalForAll",
      "type": "event"
    },
    {
      "anonymous": false,
      "inputs": [
        {
          "indexed": true,
          "internalType": "address",
          "name": "previousOwner",
          "type": "address"
        },
        {
          "indexed": true,
          "internalType": "address",
          "name": "newOwner",
          "type": "address"
        }
      ],
      "name": "OwnershipTransferred",
      "type": "event"
    },
    {
      "anonymous": false,
      "inputs": [
        {
          "indexed": true,
          "internalType": "address",
          "name": "from",
          "type": "address"
        },
        {
          "indexed": true,
          "internalType": "address",
          "name": "to",
          "type": "address"
        },
        {
          "indexed": true,
          "internalType": "uint256",
          "name": "tokenId",
          "type": "uint256"
        }
      ],
      "name": "Transfer",
      "type": "event"
    },
    {
      "inputs": [],
      "name": "MAX_PER_MINT",
      "outputs": [
        {
          "internalType": "uint256",
          "name": "",
          "type": "uint256"
        }
      ],
      "stateMutability": "view",
      "type": "function"
    },
    {
      "inputs": [],
      "name": "MAX_SUPPLY",
      "outputs": [
        {
          "internalType": "uint256",
          "name": "",
          "type": "uint256"
        }
      ],
      "stateMutability": "view",
      "type": "function"
    },
    {
      "inputs": [],
      "name": "PRICE",
      "outputs": [
        {
          "internalType": "uint256",
          "name": "",
          "type": "uint256"
        }
      ],
      "stateMutability": "view",
      "type": "function"
    },
    {
      "inputs": [
        {
          "internalType": "address",
          "name": "to",
          "type": "address"
        },
        {
          "internalType": "uint256",
          "name": "tokenId",
          "type": "uint256"
        }
      ],
      "name": "approve",
      "outputs": [],
      "stateMutability": "nonpayable",
      "type": "function"
    },
    {
      "inputs": [
        {
          "internalType": "address",
          "name": "owner",
          "type": "address"
        }
      ],
      "name": "balanceOf",
      "outputs": [
        {
          "internalType": "uint256",
          "name": "",
          "type": "uint256"
        }
      ],
      "stateMutability": "view",
      "type": "function"
    },
    {
      "inputs": [],
      "name": "baseTokenURI",
      "outputs": [
        {
          "internalType": "string",
          "name": "",
          "type": "string"
        }
      ],
      "stateMutability": "view",
      "type": "function"
    },
    {
      "inputs": [
        {
          "internalType": "uint256",
          "name": "tokenId",
          "type": "uint256"
        }
      ],
      "name": "getApproved",
      "outputs": [
        {
          "internalType": "address",
          "name": "",
          "type": "address"
        }
      ],
      "stateMutability": "view",
      "type": "function"
    },
    {
      "inputs": [
        {
          "internalType": "address",
          "name": "owner",
          "type": "address"
        },
        {
          "internalType": "address",
          "name": "operator",
          "type": "address"
        }
      ],
      "name": "isApprovedForAll",
      "outputs": [
        {
          "internalType": "bool",
          "name": "",
          "type": "bool"
        }
      ],
      "stateMutability": "view",
      "type": "function"
    },
    {
      "inputs": [
        {
          "internalType": "uint256",
          "name": "_count",
          "type": "uint256"
        }
      ],
      "name": "mintNFTs",
      "outputs": [],
      "stateMutability": "payable",
      "type": "function"
    },
    {
      "inputs": [],
      "name": "name",
      "outputs": [
        {
          "internalType": "string",
          "name": "",
          "type": "string"
        }
      ],
      "stateMutability": "view",
      "type": "function"
    },
    {
      "inputs": [],
      "name": "owner",
      "outputs": [
        {
          "internalType": "address",
          "name": "",
          "type": "address"
        }
      ],
      "stateMutability": "view",
      "type": "function"
    },
    {
      "inputs": [
        {
          "internalType": "uint256",
          "name": "tokenId",
          "type": "uint256"
        }
      ],
      "name": "ownerOf",
      "outputs": [
        {
          "internalType": "address",
          "name": "",
          "type": "address"
        }
      ],
      "stateMutability": "view",
      "type": "function"
    },
    {
      "inputs": [],
      "name": "renounceOwnership",
      "outputs": [],
      "stateMutability": "nonpayable",
      "type": "function"
    },
    {
      "inputs": [],
      "name": "reserveNFTs",
      "outputs": [],
      "stateMutability": "nonpayable",
      "type": "function"
    },
    {
      "inputs": [
        {
          "internalType": "address",
          "name": "from",
          "type": "address"
        },
        {
          "internalType": "address",
          "name": "to",
          "type": "address"
        },
        {
          "internalType": "uint256",
          "name": "tokenId",
          "type": "uint256"
        }
      ],
      "name": "safeTransferFrom",
      "outputs": [],
      "stateMutability": "nonpayable",
      "type": "function"
    },
    {
      "inputs": [
        {
          "internalType": "address",
          "name": "from",
          "type": "address"
        },
        {
          "internalType": "address",
          "name": "to",
          "type": "address"
        },
        {
          "internalType": "uint256",
          "name": "tokenId",
          "type": "uint256"
        },
        {
          "internalType": "bytes",
          "name": "_data",
          "type": "bytes"
        }
      ],
      "name": "safeTransferFrom",
      "outputs": [],
      "stateMutability": "nonpayable",
      "type": "function"
    },
    {
      "inputs": [
        {
          "internalType": "address",
          "name": "operator",
          "type": "address"
        },
        {
          "internalType": "bool",
          "name": "approved",
          "type": "bool"
        }
      ],
      "name": "setApprovalForAll",
      "outputs": [],
      "stateMutability": "nonpayable",
      "type": "function"
    },
    {
      "inputs": [
        {
          "internalType": "string",
          "name": "_baseTokenURI",
          "type": "string"
        }
      ],
      "name": "setBaseURI",
      "outputs": [],
      "stateMutability": "nonpayable",
      "type": "function"
    },
    {
      "inputs": [
        {
          "internalType": "bytes4",
          "name": "interfaceId",
          "type": "bytes4"
        }
      ],
      "name": "supportsInterface",
      "outputs": [
        {
          "internalType": "bool",
          "name": "",
          "type": "bool"
        }
      ],
      "stateMutability": "view",
      "type": "function"
    },
    {
      "inputs": [],
      "name": "symbol",
      "outputs": [
        {
          "internalType": "string",
          "name": "",
          "type": "string"
        }
      ],
      "stateMutability": "view",
      "type": "function"
    },
    {
      "inputs": [
        {
          "internalType": "uint256",
          "name": "index",
          "type": "uint256"
        }
      ],
      "name": "tokenByIndex",
      "outputs": [
        {
          "internalType": "uint256",
          "name": "",
          "type": "uint256"
        }
      ],
      "stateMutability": "view",
      "type": "function"
    },
    {
      "inputs": [
        {
          "internalType": "address",
          "name": "owner",
          "type": "address"
        },
        {
          "internalType": "uint256",
          "name": "index",
          "type": "uint256"
        }
      ],
      "name": "tokenOfOwnerByIndex",
      "outputs": [
        {
          "internalType": "uint256",
          "name": "",
          "type": "uint256"
        }
      ],
      "stateMutability": "view",
      "type": "function"
    },
    {
      "inputs": [
        {
          "internalType": "uint256",
          "name": "tokenId",
          "type": "uint256"
        }
      ],
      "name": "tokenURI",
      "outputs": [
        {
          "internalType": "string",
          "name": "",
          "type": "string"
        }
      ],
      "stateMutability": "view",
      "type": "function"
    },
    {
      "inputs": [
        {
          "internalType": "address",
          "name": "_owner",
          "type": "address"
        }
      ],
      "name": "tokensOfOwner",
      "outputs": [
        {
          "internalType": "uint256[]",
          "name": "",
          "type": "uint256[]"
        }
      ],
      "stateMutability": "view",
      "type": "function"
    },
    {
      "inputs": [],
      "name": "totalSupply",
      "outputs": [
        {
          "internalType": "uint256",
          "name": "",
          "type": "uint256"
        }
      ],
      "stateMutability": "view",
      "type": "function"
    },
    {
      "inputs": [
        {
          "internalType": "address",
          "name": "from",
          "type": "address"
        },
        {
          "internalType": "address",
          "name": "to",
          "type": "address"
        },
        {
          "internalType": "uint256",
          "name": "tokenId",
          "type": "uint256"
        }
      ],
      "name": "transferFrom",
      "outputs": [],
      "stateMutability": "nonpayable",
      "type": "function"
    },
    {
      "inputs": [
        {
          "internalType": "address",
          "name": "newOwner",
          "type": "address"
        }
      ],
      "name": "transferOwnership",
      "outputs": [],
      "stateMutability": "nonpayable",
      "type": "function"
    },
    {
      "inputs": [],
      "name": "withdraw",
      "outputs": [],
      "stateMutability": "payable",
      "type": "function"
    }
  ],
  "bytecode": "0x60806040523480156200001157600080fd5b5060405162004824380380620048248339818101604052810190620000379190620003d4565b6040518060400160405280601681526020017f427564646861204e465420436f6c6c65637469626c65000000000000000000008152506040518060400160405280600681526020017f42554444484100000000000000000000000000000000000000000000000000008152508160009080519060200190620000bb929190620002b2565b508060019080519060200190620000d4929190620002b2565b505050620000f7620000eb6200010f60201b60201c565b6200011760201b60201c565b6200010881620001dd60201b60201c565b506200060c565b600033905090565b6000600a60009054906101000a900473ffffffffffffffffffffffffffffffffffffffff16905081600a60006101000a81548173ffffffffffffffffffffffffffffffffffffffff021916908373ffffffffffffffffffffffffffffffffffffffff1602179055508173ffffffffffffffffffffffffffffffffffffffff168173ffffffffffffffffffffffffffffffffffffffff167f8be0079c531659141344cd1fd0a4f28419497f9722a3daafe3b4186f6b6457e060405160405180910390a35050565b620001ed6200010f60201b60201c565b73ffffffffffffffffffffffffffffffffffffffff16620002136200028860201b60201c565b73ffffffffffffffffffffffffffffffffffffffff16146200026c576040517f08c379a0000000000000000000000000000000000000000000000000000000008152600401620002639062000440565b60405180910390fd5b80600c908051906020019062000284929190620002b2565b5050565b6000600a60009054906101000a900473ffffffffffffffffffffffffffffffffffffffff16905090565b828054620002c09062000508565b90600052602060002090601f016020900481019282620002e4576000855562000330565b82601f10620002ff57805160ff191683800117855562000330565b8280016001018555821562000330579182015b828111156200032f57825182559160200191906001019062000312565b5b5090506200033f919062000343565b5090565b5b808211156200035e57600081600090555060010162000344565b5090565b60006200037962000373846200048b565b62000462565b9050828152602081018484840111156200039257600080fd5b6200039f848285620004d2565b509392505050565b600082601f830112620003b957600080fd5b8151620003cb84826020860162000362565b91505092915050565b600060208284031215620003e757600080fd5b600082015167ffffffffffffffff8111156200040257600080fd5b6200041084828501620003a7565b91505092915050565b600062000428602083620004c1565b91506200043582620005e3565b602082019050919050565b600060208201905081810360008301526200045b8162000419565b9050919050565b60006200046e62000481565b90506200047c82826200053e565b919050565b6000604051905090565b600067ffffffffffffffff821115620004a957620004a8620005a3565b5b620004b482620005d2565b9050602081019050919050565b600082825260208201905092915050565b60005b83811015620004f2578082015181840152602081019050620004d5565b8381111562000502576000848401525b50505050565b600060028204905060018216806200052157607f821691505b6020821081141562000538576200053762000574565b5b50919050565b6200054982620005d2565b810181811067ffffffffffffffff821117156200056b576200056a620005a3565b5b80604052505050565b7f4e487b7100000000000000000000000000000000000000000000000000000000600052602260045260246000fd5b7f4e487b7100000000000000000000000000000000000000000000000000000000600052604160045260246000fd5b6000601f19601f8301169050919050565b7f4f776e61626c653a2063616c6c6572206973206e6f7420746865206f776e6572600082015250565b614208806200061c6000396000f3fe6080604052600436106101b75760003560e01c806355f804b3116100ec57806395d89b411161008a578063c87b56dd11610064578063c87b56dd146105de578063d547cfb71461061b578063e985e9c514610646578063f2fde38b14610683576101b7565b806395d89b4114610561578063a22cb4651461058c578063b88d4fde146105b5576101b7565b8063715018a6116100c6578063715018a6146104b75780638462151c146104ce5780638d859f3e1461050b5780638da5cb5b14610536576101b7565b806355f804b3146104145780636352211e1461043d57806370a082311461047a576101b7565b806323b872dd116101595780633b4b1381116101335780633b4b1381146103885780633ccfd60b146103a457806342842e0e146103ae5780634f6ccce7146103d7576101b7565b806323b872dd146102f75780632f745c591461032057806332cb6b0c1461035d576101b7565b8063095ea7b311610195578063095ea7b31461026157806309d42b301461028a578063144100c7146102b557806318160ddd146102cc576101b7565b806301ffc9a7146101bc57806306fdde03146101f9578063081812fc14610224575b600080fd5b3480156101c857600080fd5b506101e360048036038101906101de9190612d8e565b6106ac565b6040516101f091906133a9565b60405180910390f35b34801561020557600080fd5b5061020e610726565b60405161021b91906133c4565b60405180910390f35b34801561023057600080fd5b5061024b60048036038101906102469190612e21565b6107b8565b6040516102589190613320565b60405180910390f35b34801561026d57600080fd5b5061028860048036038101906102839190612d52565b61083d565b005b34801561029657600080fd5b5061029f610955565b6040516102ac91906136c6565b60405180910390f35b3480156102c157600080fd5b506102ca61095a565b005b3480156102d857600080fd5b506102e1610a66565b6040516102ee91906136c6565b60405180910390f35b34801561030357600080fd5b5061031e60048036038101906103199190612c4c565b610a73565b005b34801561032c57600080fd5b5061034760048036038101906103429190612d52565b610ad3565b60405161035491906136c6565b60405180910390f35b34801561036957600080fd5b50610372610b78565b60405161037f91906136c6565b60405180910390f35b6103a2600480360381019061039d9190612e21565b610b7e565b005b6103ac610cba565b005b3480156103ba57600080fd5b506103d560048036038101906103d09190612c4c565b610e2e565b005b3480156103e357600080fd5b506103fe60048036038101906103f99190612e21565b610e4e565b60405161040b91906136c6565b60405180910390f35b34801561042057600080fd5b5061043b60048036038101906104369190612de0565b610ee5565b005b34801561044957600080fd5b50610464600480360381019061045f9190612e21565b610f7b565b6040516104719190613320565b60405180910390f35b34801561048657600080fd5b506104a1600480360381019061049c9190612be7565b61102d565b6040516104ae91906136c6565b60405180910390f35b3480156104c357600080fd5b506104cc6110e5565b005b3480156104da57600080fd5b506104f560048036038101906104f09190612be7565b61116d565b6040516105029190613387565b60405180910390f35b34801561051757600080fd5b50610520611267565b60405161052d91906136c6565b60405180910390f35b34801561054257600080fd5b5061054b611272565b6040516105589190613320565b60405180910390f35b34801561056d57600080fd5b5061057661129c565b60405161058391906133c4565b60405180910390f35b34801561059857600080fd5b506105b360048036038101906105ae9190612d16565b61132e565b005b3480156105c157600080fd5b506105dc60048036038101906105d79190612c9b565b611344565b005b3480156105ea57600080fd5b5061060560048036038101906106009190612e21565b6113a6565b60405161061291906133c4565b60405180910390f35b34801561062757600080fd5b5061063061144d565b60405161063d91906133c4565b60405180910390f35b34801561065257600080fd5b5061066d60048036038101906106689190612c10565b6114db565b60405161067a91906133a9565b60405180910390f35b34801561068f57600080fd5b506106aa60048036038101906106a59190612be7565b61156f565b005b60007f780e9d63000000000000000000000000000000000000000000000000000000007bffffffffffffffffffffffffffffffffffffffffffffffffffffffff1916827bffffffffffffffffffffffffffffffffffffffffffffffffffffffff1916148061071f575061071e82611667565b5b9050919050565b606060008054610735906139ba565b80601f0160208091040260200160405190810160405280929190818152602001828054610761906139ba565b80156107ae5780601f10610783576101008083540402835291602001916107ae565b820191906000526020600020905b81548152906001019060200180831161079157829003601f168201915b5050505050905090565b60006107c382611749565b610802576040517f08c379a00000000000000000000000000000000000000000000000000000000081526004016107f9906135c6565b60405180910390fd5b6004600083815260200190815260200160002060009054906101000a900473ffffffffffffffffffffffffffffffffffffffff169050919050565b600061084882610f7b565b90508073ffffffffffffffffffffffffffffffffffffffff168373ffffffffffffffffffffffffffffffffffffffff1614156108b9576040517f08c379a00000000000000000000000000000000000000000000000000000000081526004016108b090613626565b60405180910390fd5b8073ffffffffffffffffffffffffffffffffffffffff166108d86117b5565b73ffffffffffffffffffffffffffffffffffffffff1614806109075750610906816109016117b5565b6114db565b5b610946576040517f08c379a000000000000000000000000000000000000000000000000000000000815260040161093d90613526565b60405180910390fd5b61095083836117bd565b505050565b600581565b6109626117b5565b73ffffffffffffffffffffffffffffffffffffffff16610980611272565b73ffffffffffffffffffffffffffffffffffffffff16146109d6576040517f08c379a00000000000000000000000000000000000000000000000000000000081526004016109cd906135e6565b60405180910390fd5b60006109e2600b611876565b90506113886109fb600a8361188490919063ffffffff16565b10610a3b576040517f08c379a0000000000000000000000000000000000000000000000000000000008152600401610a3290613406565b60405180910390fd5b60005b600a811015610a6257610a4f61189a565b8080610a5a90613a1d565b915050610a3e565b5050565b6000600880549050905090565b610a84610a7e6117b5565b826118bf565b610ac3576040517f08c379a0000000000000000000000000000000000000000000000000000000008152600401610aba90613666565b60405180910390fd5b610ace83838361199d565b505050565b6000610ade8361102d565b8210610b1f576040517f08c379a0000000000000000000000000000000000000000000000000000000008152600401610b1690613426565b60405180910390fd5b600660008473ffffffffffffffffffffffffffffffffffffffff1673ffffffffffffffffffffffffffffffffffffffff168152602001908152602001600020600083815260200190815260200160002054905092915050565b61138881565b6000610b8a600b611876565b9050611388610ba2838361188490919063ffffffff16565b1115610be3576040517f08c379a0000000000000000000000000000000000000000000000000000000008152600401610bda90613406565b60405180910390fd5b600082118015610bf4575060058211155b610c33576040517f08c379a0000000000000000000000000000000000000000000000000000000008152600401610c2a906136a6565b60405180910390fd5b610c4d826658d15e17628000611c0490919063ffffffff16565b341015610c8f576040517f08c379a0000000000000000000000000000000000000000000000000000000008152600401610c86906133e6565b60405180910390fd5b60005b82811015610cb557610ca261189a565b8080610cad90613a1d565b915050610c92565b505050565b610cc26117b5565b73ffffffffffffffffffffffffffffffffffffffff16610ce0611272565b73ffffffffffffffffffffffffffffffffffffffff1614610d36576040517f08c379a0000000000000000000000000000000000000000000000000000000008152600401610d2d906135e6565b60405180910390fd5b600047905060008111610d7e576040517f08c379a0000000000000000000000000000000000000000000000000000000008152600401610d7590613646565b60405180910390fd5b60003373ffffffffffffffffffffffffffffffffffffffff1682604051610da49061330b565b60006040518083038185875af1925050503d8060008114610de1576040519150601f19603f3d011682016040523d82523d6000602084013e610de6565b606091505b5050905080610e2a576040517f08c379a0000000000000000000000000000000000000000000000000000000008152600401610e21906135a6565b60405180910390fd5b5050565b610e4983838360405180602001604052806000815250611344565b505050565b6000610e58610a66565b8210610e99576040517f08c379a0000000000000000000000000000000000000000000000000000000008152600401610e9090613686565b60405180910390fd5b60088281548110610ed3577f4e487b7100000000000000000000000000000000000000000000000000000000600052603260045260246000fd5b90600052602060002001549050919050565b610eed6117b5565b73ffffffffffffffffffffffffffffffffffffffff16610f0b611272565b73ffffffffffffffffffffffffffffffffffffffff1614610f61576040517f08c379a0000000000000000000000000000000000000000000000000000000008152600401610f58906135e6565b60405180910390fd5b80600c9080519060200190610f77929190612a0b565b5050565b6000806002600084815260200190815260200160002060009054906101000a900473ffffffffffffffffffffffffffffffffffffffff169050600073ffffffffffffffffffffffffffffffffffffffff168173ffffffffffffffffffffffffffffffffffffffff161415611024576040517f08c379a000000000000000000000000000000000000000000000000000000000815260040161101b90613566565b60405180910390fd5b80915050919050565b60008073ffffffffffffffffffffffffffffffffffffffff168273ffffffffffffffffffffffffffffffffffffffff16141561109e576040517f08c379a000000000000000000000000000000000000000000000000000000000815260040161109590613546565b60405180910390fd5b600360008373ffffffffffffffffffffffffffffffffffffffff1673ffffffffffffffffffffffffffffffffffffffff168152602001908152602001600020549050919050565b6110ed6117b5565b73ffffffffffffffffffffffffffffffffffffffff1661110b611272565b73ffffffffffffffffffffffffffffffffffffffff1614611161576040517f08c379a0000000000000000000000000000000000000000000000000000000008152600401611158906135e6565b60405180910390fd5b61116b6000611c1a565b565b6060600061117a8361102d565b905060008167ffffffffffffffff8111156111be577f4e487b7100000000000000000000000000000000000000000000000000000000600052604160045260246000fd5b6040519080825280602002602001820160405280156111ec5781602001602082028036833780820191505090505b50905060005b8281101561125c576112048582610ad3565b82828151811061123d577f4e487b7100000000000000000000000000000000000000000000000000000000600052603260045260246000fd5b602002602001018181525050808061125490613a1d565b9150506111f2565b508092505050919050565b6658d15e1762800081565b6000600a60009054906101000a900473ffffffffffffffffffffffffffffffffffffffff16905090565b6060600180546112ab906139ba565b80601f01602080910402602001604051908101604052809291908181526020018280546112d7906139ba565b80156113245780601f106112f957610100808354040283529160200191611324565b820191906000526020600020905b81548152906001019060200180831161130757829003601f168201915b5050505050905090565b6113406113396117b5565b8383611ce0565b5050565b61135561134f6117b5565b836118bf565b611394576040517f08c379a000000000000000000000000000000000000000000000000000000000815260040161138b90613666565b60405180910390fd5b6113a084848484611e4d565b50505050565b60606113b182611749565b6113f0576040517f08c379a00000000000000000000000000000000000000000000000000000000081526004016113e790613606565b60405180910390fd5b60006113fa611ea9565b9050600081511161141a5760405180602001604052806000815250611445565b8061142484611f3b565b6040516020016114359291906132e7565b6040516020818303038152906040525b915050919050565b600c805461145a906139ba565b80601f0160208091040260200160405190810160405280929190818152602001828054611486906139ba565b80156114d35780601f106114a8576101008083540402835291602001916114d3565b820191906000526020600020905b8154815290600101906020018083116114b657829003601f168201915b505050505081565b6000600560008473ffffffffffffffffffffffffffffffffffffffff1673ffffffffffffffffffffffffffffffffffffffff16815260200190815260200160002060008373ffffffffffffffffffffffffffffffffffffffff1673ffffffffffffffffffffffffffffffffffffffff16815260200190815260200160002060009054906101000a900460ff16905092915050565b6115776117b5565b73ffffffffffffffffffffffffffffffffffffffff16611595611272565b73ffffffffffffffffffffffffffffffffffffffff16146115eb576040517f08c379a00000000000000000000000000000000000000000000000000000000081526004016115e2906135e6565b60405180910390fd5b600073ffffffffffffffffffffffffffffffffffffffff168173ffffffffffffffffffffffffffffffffffffffff16141561165b576040517f08c379a000000000000000000000000000000000000000000000000000000000815260040161165290613466565b60405180910390fd5b61166481611c1a565b50565b60007f80ac58cd000000000000000000000000000000000000000000000000000000007bffffffffffffffffffffffffffffffffffffffffffffffffffffffff1916827bffffffffffffffffffffffffffffffffffffffffffffffffffffffff1916148061173257507f5b5e139f000000000000000000000000000000000000000000000000000000007bffffffffffffffffffffffffffffffffffffffffffffffffffffffff1916827bffffffffffffffffffffffffffffffffffffffffffffffffffffffff1916145b806117425750611741826120e8565b5b9050919050565b60008073ffffffffffffffffffffffffffffffffffffffff166002600084815260200190815260200160002060009054906101000a900473ffffffffffffffffffffffffffffffffffffffff1673ffffffffffffffffffffffffffffffffffffffff1614159050919050565b600033905090565b816004600083815260200190815260200160002060006101000a81548173ffffffffffffffffffffffffffffffffffffffff021916908373ffffffffffffffffffffffffffffffffffffffff160217905550808273ffffffffffffffffffffffffffffffffffffffff1661183083610f7b565b73ffffffffffffffffffffffffffffffffffffffff167f8c5be1e5ebec7d5bd14f71427d1e84f3dd0314c0f7b2291e5b200ac8c7c3b92560405160405180910390a45050565b600081600001549050919050565b6000818361189291906137ef565b905092915050565b60006118a6600b611876565b90506118b23382612152565b6118bc600b612170565b50565b60006118ca82611749565b611909576040517f08c379a000000000000000000000000000000000000000000000000000000000815260040161190090613506565b60405180910390fd5b600061191483610f7b565b90508073ffffffffffffffffffffffffffffffffffffffff168473ffffffffffffffffffffffffffffffffffffffff161480611956575061195581856114db565b5b8061199457508373ffffffffffffffffffffffffffffffffffffffff1661197c846107b8565b73ffffffffffffffffffffffffffffffffffffffff16145b91505092915050565b8273ffffffffffffffffffffffffffffffffffffffff166119bd82610f7b565b73ffffffffffffffffffffffffffffffffffffffff1614611a13576040517f08c379a0000000000000000000000000000000000000000000000000000000008152600401611a0a90613486565b60405180910390fd5b600073ffffffffffffffffffffffffffffffffffffffff168273ffffffffffffffffffffffffffffffffffffffff161415611a83576040517f08c379a0000000000000000000000000000000000000000000000000000000008152600401611a7a906134c6565b60405180910390fd5b611a8e838383612186565b611a996000826117bd565b6001600360008573ffffffffffffffffffffffffffffffffffffffff1673ffffffffffffffffffffffffffffffffffffffff1681526020019081526020016000206000828254611ae991906138d0565b925050819055506001600360008473ffffffffffffffffffffffffffffffffffffffff1673ffffffffffffffffffffffffffffffffffffffff1681526020019081526020016000206000828254611b4091906137ef565b92505081905550816002600083815260200190815260200160002060006101000a81548173ffffffffffffffffffffffffffffffffffffffff021916908373ffffffffffffffffffffffffffffffffffffffff160217905550808273ffffffffffffffffffffffffffffffffffffffff168473ffffffffffffffffffffffffffffffffffffffff167fddf252ad1be2c89b69c2b068fc378daa952ba7f163c4a11628f55a4df523b3ef60405160405180910390a4611bff83838361229a565b505050565b60008183611c129190613876565b905092915050565b6000600a60009054906101000a900473ffffffffffffffffffffffffffffffffffffffff16905081600a60006101000a81548173ffffffffffffffffffffffffffffffffffffffff021916908373ffffffffffffffffffffffffffffffffffffffff1602179055508173ffffffffffffffffffffffffffffffffffffffff168173ffffffffffffffffffffffffffffffffffffffff167f8be0079c531659141344cd1fd0a4f28419497f9722a3daafe3b4186f6b6457e060405160405180910390a35050565b8173ffffffffffffffffffffffffffffffffffffffff168373ffffffffffffffffffffffffffffffffffffffff161415611d4f576040517f08c379a0000000000000000000000000000000000000000000000000000000008152600401611d46906134e6565b60405180910390fd5b80600560008573ffffffffffffffffffffffffffffffffffffffff1673ffffffffffffffffffffffffffffffffffffffff16815260200190815260200160002060008473ffffffffffffffffffffffffffffffffffffffff1673ffffffffffffffffffffffffffffffffffffffff16815260200190815260200160002060006101000a81548160ff0219169083151502179055508173ffffffffffffffffffffffffffffffffffffffff168373ffffffffffffffffffffffffffffffffffffffff167f17307eab39ab6107e8899845ad3d59bd9653f200f220920489ca2b5937696c3183604051611e4091906133a9565b60405180910390a3505050565b611e5884848461199d565b611e648484848461229f565b611ea3576040517f08c379a0000000000000000000000000000000000000000000000000000000008152600401611e9a90613446565b60405180910390fd5b50505050565b6060600c8054611eb8906139ba565b80601f0160208091040260200160405190810160405280929190818152602001828054611ee4906139ba565b8015611f315780601f10611f0657610100808354040283529160200191611f31565b820191906000526020600020905b815481529060010190602001808311611f1457829003601f168201915b5050505050905090565b60606000821415611f83576040518060400160405280600181526020017f300000000000000000000000000000000000000000000000000000000000000081525090506120e3565b600082905060005b60008214611fb5578080611f9e90613a1d565b915050600a82611fae9190613845565b9150611f8b565b60008167ffffffffffffffff811115611ff7577f4e487b7100000000000000000000000000000000000000000000000000000000600052604160045260246000fd5b6040519080825280601f01601f1916602001820160405280156120295781602001600182028036833780820191505090505b5090505b600085146120dc5760018261204291906138d0565b9150600a856120519190613a66565b603061205d91906137ef565b60f81b818381518110612099577f4e487b7100000000000000000000000000000000000000000000000000000000600052603260045260246000fd5b60200101907effffffffffffffffffffffffffffffffffffffffffffffffffffffffffffff1916908160001a905350600a856120d59190613845565b945061202d565b8093505050505b919050565b60007f01ffc9a7000000000000000000000000000000000000000000000000000000007bffffffffffffffffffffffffffffffffffffffffffffffffffffffff1916827bffffffffffffffffffffffffffffffffffffffffffffffffffffffff1916149050919050565b61216c828260405180602001604052806000815250612436565b5050565b6001816000016000828254019250508190555050565b612191838383612491565b600073ffffffffffffffffffffffffffffffffffffffff168373ffffffffffffffffffffffffffffffffffffffff1614156121d4576121cf81612496565b612213565b8173ffffffffffffffffffffffffffffffffffffffff168373ffffffffffffffffffffffffffffffffffffffff16146122125761221183826124df565b5b5b600073ffffffffffffffffffffffffffffffffffffffff168273ffffffffffffffffffffffffffffffffffffffff161415612256576122518161264c565b612295565b8273ffffffffffffffffffffffffffffffffffffffff168273ffffffffffffffffffffffffffffffffffffffff161461229457612293828261278f565b5b5b505050565b505050565b60006122c08473ffffffffffffffffffffffffffffffffffffffff1661280e565b15612429578373ffffffffffffffffffffffffffffffffffffffff1663150b7a026122e96117b5565b8786866040518563ffffffff1660e01b815260040161230b949392919061333b565b602060405180830381600087803b15801561232557600080fd5b505af192505050801561235657506040513d601f19601f820116820180604052508101906123539190612db7565b60015b6123d9573d8060008114612386576040519150601f19603f3d011682016040523d82523d6000602084013e61238b565b606091505b506000815114156123d1576040517f08c379a00000000000000000000000000000000000000000000000000000000081526004016123c890613446565b60405180910390fd5b805181602001fd5b63150b7a0260e01b7bffffffffffffffffffffffffffffffffffffffffffffffffffffffff1916817bffffffffffffffffffffffffffffffffffffffffffffffffffffffff19161491505061242e565b600190505b949350505050565b6124408383612831565b61244d600084848461229f565b61248c576040517f08c379a000000000000000000000000000000000000000000000000000000000815260040161248390613446565b60405180910390fd5b505050565b505050565b6008805490506009600083815260200190815260200160002081905550600881908060018154018082558091505060019003906000526020600020016000909190919091505550565b600060016124ec8461102d565b6124f691906138d0565b90506000600760008481526020019081526020016000205490508181146125db576000600660008673ffffffffffffffffffffffffffffffffffffffff1673ffffffffffffffffffffffffffffffffffffffff168152602001908152602001600020600084815260200190815260200160002054905080600660008773ffffffffffffffffffffffffffffffffffffffff1673ffffffffffffffffffffffffffffffffffffffff168152602001908152602001600020600084815260200190815260200160002081905550816007600083815260200190815260200160002081905550505b6007600084815260200190815260200160002060009055600660008573ffffffffffffffffffffffffffffffffffffffff1673ffffffffffffffffffffffffffffffffffffffff16815260200190815260200160002060008381526020019081526020016000206000905550505050565b6000600160088054905061266091906138d0565b90506000600960008481526020019081526020016000205490506000600883815481106126b6577f4e487b7100000000000000000000000000000000000000000000000000000000600052603260045260246000fd5b9060005260206000200154905080600883815481106126fe577f4e487b7100000000000000000000000000000000000000000000000000000000600052603260045260246000fd5b906000526020600020018190555081600960008381526020019081526020016000208190555060096000858152602001908152602001600020600090556008805480612773577f4e487b7100000000000000000000000000000000000000000000000000000000600052603160045260246000fd5b6001900381819060005260206000200160009055905550505050565b600061279a8361102d565b905081600660008573ffffffffffffffffffffffffffffffffffffffff1673ffffffffffffffffffffffffffffffffffffffff168152602001908152602001600020600083815260200190815260200160002081905550806007600084815260200190815260200160002081905550505050565b6000808273ffffffffffffffffffffffffffffffffffffffff163b119050919050565b600073ffffffffffffffffffffffffffffffffffffffff168273ffffffffffffffffffffffffffffffffffffffff1614156128a1576040517f08c379a000000000000000000000000000000000000000000000000000000000815260040161289890613586565b60405180910390fd5b6128aa81611749565b156128ea576040517f08c379a00000000000000000000000000000000000000000000000000000000081526004016128e1906134a6565b60405180910390fd5b6128f660008383612186565b6001600360008473ffffffffffffffffffffffffffffffffffffffff1673ffffffffffffffffffffffffffffffffffffffff168152602001908152602001600020600082825461294691906137ef565b92505081905550816002600083815260200190815260200160002060006101000a81548173ffffffffffffffffffffffffffffffffffffffff021916908373ffffffffffffffffffffffffffffffffffffffff160217905550808273ffffffffffffffffffffffffffffffffffffffff16600073ffffffffffffffffffffffffffffffffffffffff167fddf252ad1be2c89b69c2b068fc378daa952ba7f163c4a11628f55a4df523b3ef60405160405180910390a4612a076000838361229a565b5050565b828054612a17906139ba565b90600052602060002090601f016020900481019282612a395760008555612a80565b82601f10612a5257805160ff1916838001178555612a80565b82800160010185558215612a80579182015b82811115612a7f578251825591602001919060010190612a64565b5b509050612a8d9190612a91565b5090565b5b80821115612aaa576000816000905550600101612a92565b5090565b6000612ac1612abc84613706565b6136e1565b905082815260208101848484011115612ad957600080fd5b612ae4848285613978565b509392505050565b6000612aff612afa84613737565b6136e1565b905082815260208101848484011115612b1757600080fd5b612b22848285613978565b509392505050565b600081359050612b3981614176565b92915050565b600081359050612b4e8161418d565b92915050565b600081359050612b63816141a4565b92915050565b600081519050612b78816141a4565b92915050565b600082601f830112612b8f57600080fd5b8135612b9f848260208601612aae565b91505092915050565b600082601f830112612bb957600080fd5b8135612bc9848260208601612aec565b91505092915050565b600081359050612be1816141bb565b92915050565b600060208284031215612bf957600080fd5b6000612c0784828501612b2a565b91505092915050565b60008060408385031215612c2357600080fd5b6000612c3185828601612b2a565b9250506020612c4285828601612b2a565b9150509250929050565b600080600060608486031215612c6157600080fd5b6000612c6f86828701612b2a565b9350506020612c8086828701612b2a565b9250506040612c9186828701612bd2565b9150509250925092565b60008060008060808587031215612cb157600080fd5b6000612cbf87828801612b2a565b9450506020612cd087828801612b2a565b9350506040612ce187828801612bd2565b925050606085013567ffffffffffffffff811115612cfe57600080fd5b612d0a87828801612b7e565b91505092959194509250565b60008060408385031215612d2957600080fd5b6000612d3785828601612b2a565b9250506020612d4885828601612b3f565b9150509250929050565b60008060408385031215612d6557600080fd5b6000612d7385828601612b2a565b9250506020612d8485828601612bd2565b9150509250929050565b600060208284031215612da057600080fd5b6000612dae84828501612b54565b91505092915050565b600060208284031215612dc957600080fd5b6000612dd784828501612b69565b91505092915050565b600060208284031215612df257600080fd5b600082013567ffffffffffffffff811115612e0c57600080fd5b612e1884828501612ba8565b91505092915050565b600060208284031215612e3357600080fd5b6000612e4184828501612bd2565b91505092915050565b6000612e5683836132c9565b60208301905092915050565b612e6b81613904565b82525050565b6000612e7c82613778565b612e8681856137a6565b9350612e9183613768565b8060005b83811015612ec2578151612ea98882612e4a565b9750612eb483613799565b925050600181019050612e95565b5085935050505092915050565b612ed881613916565b82525050565b6000612ee982613783565b612ef381856137b7565b9350612f03818560208601613987565b612f0c81613b53565b840191505092915050565b6000612f228261378e565b612f2c81856137d3565b9350612f3c818560208601613987565b612f4581613b53565b840191505092915050565b6000612f5b8261378e565b612f6581856137e4565b9350612f75818560208601613987565b80840191505092915050565b6000612f8e6022836137d3565b9150612f9982613b64565b604082019050919050565b6000612fb16010836137d3565b9150612fbc82613bb3565b602082019050919050565b6000612fd4602b836137d3565b9150612fdf82613bdc565b604082019050919050565b6000612ff76032836137d3565b915061300282613c2b565b604082019050919050565b600061301a6026836137d3565b915061302582613c7a565b604082019050919050565b600061303d6025836137d3565b915061304882613cc9565b604082019050919050565b6000613060601c836137d3565b915061306b82613d18565b602082019050919050565b60006130836024836137d3565b915061308e82613d41565b604082019050919050565b60006130a66019836137d3565b91506130b182613d90565b602082019050919050565b60006130c9602c836137d3565b91506130d482613db9565b604082019050919050565b60006130ec6038836137d3565b91506130f782613e08565b604082019050919050565b600061310f602a836137d3565b915061311a82613e57565b604082019050919050565b60006131326029836137d3565b915061313d82613ea6565b604082019050919050565b60006131556020836137d3565b915061316082613ef5565b602082019050919050565b60006131786010836137d3565b915061318382613f1e565b602082019050919050565b600061319b602c836137d3565b91506131a682613f47565b604082019050919050565b60006131be6020836137d3565b91506131c982613f96565b602082019050919050565b60006131e1602f836137d3565b91506131ec82613fbf565b604082019050919050565b60006132046021836137d3565b915061320f8261400e565b604082019050919050565b6000613227601a836137d3565b91506132328261405d565b602082019050919050565b600061324a6000836137c8565b915061325582614086565b600082019050919050565b600061326d6031836137d3565b915061327882614089565b604082019050919050565b6000613290602c836137d3565b915061329b826140d8565b604082019050919050565b60006132b36025836137d3565b91506132be82614127565b604082019050919050565b6132d28161396e565b82525050565b6132e18161396e565b82525050565b60006132f38285612f50565b91506132ff8284612f50565b91508190509392505050565b60006133168261323d565b9150819050919050565b60006020820190506133356000830184612e62565b92915050565b60006080820190506133506000830187612e62565b61335d6020830186612e62565b61336a60408301856132d8565b818103606083015261337c8184612ede565b905095945050505050565b600060208201905081810360008301526133a18184612e71565b905092915050565b60006020820190506133be6000830184612ecf565b92915050565b600060208201905081810360008301526133de8184612f17565b905092915050565b600060208201905081810360008301526133ff81612f81565b9050919050565b6000602082019050818103600083015261341f81612fa4565b9050919050565b6000602082019050818103600083015261343f81612fc7565b9050919050565b6000602082019050818103600083015261345f81612fea565b9050919050565b6000602082019050818103600083015261347f8161300d565b9050919050565b6000602082019050818103600083015261349f81613030565b9050919050565b600060208201905081810360008301526134bf81613053565b9050919050565b600060208201905081810360008301526134df81613076565b9050919050565b600060208201905081810360008301526134ff81613099565b9050919050565b6000602082019050818103600083015261351f816130bc565b9050919050565b6000602082019050818103600083015261353f816130df565b9050919050565b6000602082019050818103600083015261355f81613102565b9050919050565b6000602082019050818103600083015261357f81613125565b9050919050565b6000602082019050818103600083015261359f81613148565b9050919050565b600060208201905081810360008301526135bf8161316b565b9050919050565b600060208201905081810360008301526135df8161318e565b9050919050565b600060208201905081810360008301526135ff816131b1565b9050919050565b6000602082019050818103600083015261361f816131d4565b9050919050565b6000602082019050818103600083015261363f816131f7565b9050919050565b6000602082019050818103600083015261365f8161321a565b9050919050565b6000602082019050818103600083015261367f81613260565b9050919050565b6000602082019050818103600083015261369f81613283565b9050919050565b600060208201905081810360008301526136bf816132a6565b9050919050565b60006020820190506136db60008301846132d8565b92915050565b60006136eb6136fc565b90506136f782826139ec565b919050565b6000604051905090565b600067ffffffffffffffff82111561372157613720613b24565b5b61372a82613b53565b9050602081019050919050565b600067ffffffffffffffff82111561375257613751613b24565b5b61375b82613b53565b9050602081019050919050565b6000819050602082019050919050565b600081519050919050565b600081519050919050565b600081519050919050565b6000602082019050919050565b600082825260208201905092915050565b600082825260208201905092915050565b600081905092915050565b600082825260208201905092915050565b600081905092915050565b60006137fa8261396e565b91506138058361396e565b9250827fffffffffffffffffffffffffffffffffffffffffffffffffffffffffffffffff0382111561383a57613839613a97565b5b828201905092915050565b60006138508261396e565b915061385b8361396e565b92508261386b5761386a613ac6565b5b828204905092915050565b60006138818261396e565b915061388c8361396e565b9250817fffffffffffffffffffffffffffffffffffffffffffffffffffffffffffffffff04831182151516156138c5576138c4613a97565b5b828202905092915050565b60006138db8261396e565b91506138e68361396e565b9250828210156138f9576138f8613a97565b5b828203905092915050565b600061390f8261394e565b9050919050565b60008115159050919050565b60007fffffffff0000000000000000000000000000000000000000000000000000000082169050919050565b600073ffffffffffffffffffffffffffffffffffffffff82169050919050565b6000819050919050565b82818337600083830152505050565b60005b838110156139a557808201518184015260208101905061398a565b838111156139b4576000848401525b50505050565b600060028204905060018216806139d257607f821691505b602082108114156139e6576139e5613af5565b5b50919050565b6139f582613b53565b810181811067ffffffffffffffff82111715613a1457613a13613b24565b5b80604052505050565b6000613a288261396e565b91507fffffffffffffffffffffffffffffffffffffffffffffffffffffffffffffffff821415613a5b57613a5a613a97565b5b600182019050919050565b6000613a718261396e565b9150613a7c8361396e565b925082613a8c57613a8b613ac6565b5b828206905092915050565b7f4e487b7100000000000000000000000000000000000000000000000000000000600052601160045260246000fd5b7f4e487b7100000000000000000000000000000000000000000000000000000000600052601260045260246000fd5b7f4e487b7100000000000000000000000000000000000000000000000000000000600052602260045260246000fd5b7f4e487b7100000000000000000000000000000000000000000000000000000000600052604160045260246000fd5b6000601f19601f8301169050919050565b7f4e6f7420656e6f75676820657468657220746f207075726368617365204e465460008201527f7321000000000000000000000000000000000000000000000000000000000000602082015250565b7f4e6f7420656e6f756768204e4654732100000000000000000000000000000000600082015250565b7f455243373231456e756d657261626c653a206f776e657220696e646578206f7560008201527f74206f6620626f756e6473000000000000000000000000000000000000000000602082015250565b7f4552433732313a207472616e7366657220746f206e6f6e20455243373231526560008201527f63656976657220696d706c656d656e7465720000000000000000000000000000602082015250565b7f4f776e61626c653a206e6577206f776e657220697320746865207a65726f206160008201527f6464726573730000000000000000000000000000000000000000000000000000602082015250565b7f4552433732313a207472616e736665722066726f6d20696e636f72726563742060008201527f6f776e6572000000000000000000000000000000000000000000000000000000602082015250565b7f4552433732313a20746f6b656e20616c7265616479206d696e74656400000000600082015250565b7f4552433732313a207472616e7366657220746f20746865207a65726f2061646460008201527f7265737300000000000000000000000000000000000000000000000000000000602082015250565b7f4552433732313a20617070726f766520746f2063616c6c657200000000000000600082015250565b7f4552433732313a206f70657261746f7220717565727920666f72206e6f6e657860008201527f697374656e7420746f6b656e0000000000000000000000000000000000000000602082015250565b7f4552433732313a20617070726f76652063616c6c6572206973206e6f74206f7760008201527f6e6572206e6f7220617070726f76656420666f7220616c6c0000000000000000602082015250565b7f4552433732313a2062616c616e636520717565727920666f7220746865207a6560008201527f726f206164647265737300000000000000000000000000000000000000000000602082015250565b7f4552433732313a206f776e657220717565727920666f72206e6f6e657869737460008201527f656e7420746f6b656e0000000000000000000000000000000000000000000000602082015250565b7f4552433732313a206d696e7420746f20746865207a65726f2061646472657373600082015250565b7f5472616e73666572206661696c65642100000000000000000000000000000000600082015250565b7f4552433732313a20617070726f76656420717565727920666f72206e6f6e657860008201527f697374656e7420746f6b656e0000000000000000000000000000000000000000602082015250565b7f4f776e61626c653a2063616c6c6572206973206e6f7420746865206f776e6572600082015250565b7f4552433732314d657461646174613a2055524920717565727920666f72206e6f60008201527f6e6578697374656e7420746f6b656e0000000000000000000000000000000000602082015250565b7f4552433732313a20617070726f76616c20746f2063757272656e74206f776e6560008201527f7200000000000000000000000000000000000000000000000000000000000000602082015250565b7f4e6f206574686572206c65667420746f20776974686472617721000000000000600082015250565b50565b7f4552433732313a207472616e736665722063616c6c6572206973206e6f74206f60008201527f776e6572206e6f7220617070726f766564000000000000000000000000000000602082015250565b7f455243373231456e756d657261626c653a20676c6f62616c20696e646578206f60008201527f7574206f6620626f756e64730000000000000000000000000000000000000000602082015250565b7f43616e6e6f74206d696e7420737065636966696564206e756d626572206f662060008201527f4e46547321000000000000000000000000000000000000000000000000000000602082015250565b61417f81613904565b811461418a57600080fd5b50565b61419681613916565b81146141a157600080fd5b50565b6141ad81613922565b81146141b857600080fd5b50565b6141c48161396e565b81146141cf57600080fd5b5056fea26469706673582212207dfe58b5dc17580f379a81110a6ed3b00f5e28a098186d4b3db5f3362d94398b64736f6c63430008040033",
  "linkReferences": {},
  "deployedLinkReferences": {}
}