{
  "_format": "hh-sol-artifact-1",
  "contractName": "NFTMarketplace",
  "sourceName": "contracts/NFTMarketplace.sol",
  "abi": [
    {
      "inputs": [],
      "stateMutability": "nonpayable",
      "type": "constructor"
    },
    {
      "anonymous": false,
      "inputs": [
        {
          "indexed": true,
          "internalType": "uint256",
          "name": "id",
          "type": "uint256"
        },
        {
          "indexed": true,
          "internalType": "address",
          "name": "nftContract",
          "type": "address"
        },
        {
          "indexed": true,
          "internalType": "uint256",
          "name": "tokenId",
          "type": "uint256"
        },
        {
          "indexed": false,
          "internalType": "address",
          "name": "seller",
          "type": "address"
        },
        {
          "indexed": false,
          "internalType": "address",
          "name": "buyer",
          "type": "address"
        },
        {
          "indexed": false,
          "internalType": "uint256",
          "name": "price",
          "type": "uint256"
        },
        {
          "indexed": false,
          "internalType": "enum NFTMarketplace.State",
          "name": "state",
          "type": "uint8"
        }
      ],
      "name": "MarketItemCreated",
      "type": "event"
    },
    {
      "anonymous": false,
      "inputs": [
        {
          "indexed": true,
          "internalType": "uint256",
          "name": "id",
          "type": "uint256"
        },
        {
          "indexed": true,
          "internalType": "address",
          "name": "nftContract",
          "type": "address"
        },
        {
          "indexed": true,
          "internalType": "uint256",
          "name": "tokenId",
          "type": "uint256"
        },
        {
          "indexed": false,
          "internalType": "address",
          "name": "seller",
          "type": "address"
        },
        {
          "indexed": false,
          "internalType": "address",
          "name": "buyer",
          "type": "address"
        },
        {
          "indexed": false,
          "internalType": "uint256",
          "name": "price",
          "type": "uint256"
        },
        {
          "indexed": false,
          "internalType": "enum NFTMarketplace.State",
          "name": "state",
          "type": "uint8"
        }
      ],
      "name": "MarketItemSold",
      "type": "event"
    },
    {
      "anonymous": false,
      "inputs": [
        {
          "indexed": true,
          "internalType": "address",
          "name": "previousOwner",
          "type": "address"
        },
        {
          "indexed": true,
          "internalType": "address",
          "name": "newOwner",
          "type": "address"
        }
      ],
      "name": "OwnershipTransferred",
      "type": "event"
    },
    {
      "inputs": [
        {
          "internalType": "address",
          "name": "nftContract",
          "type": "address"
        },
        {
          "internalType": "uint256",
          "name": "tokenId",
          "type": "uint256"
        },
        {
          "internalType": "uint256",
          "name": "price",
          "type": "uint256"
        }
      ],
      "name": "createMarketItem",
      "outputs": [],
      "stateMutability": "payable",
      "type": "function"
    },
    {
      "inputs": [
        {
          "internalType": "address",
          "name": "nftContract",
          "type": "address"
        },
        {
          "internalType": "uint256",
          "name": "id",
          "type": "uint256"
        }
      ],
      "name": "createMarketSale",
      "outputs": [],
      "stateMutability": "payable",
      "type": "function"
    },
    {
      "inputs": [
        {
          "internalType": "uint256",
          "name": "itemId",
          "type": "uint256"
        }
      ],
      "name": "deleteMarketItem",
      "outputs": [],
      "stateMutability": "nonpayable",
      "type": "function"
    },
    {
      "inputs": [],
      "name": "fetchActiveItems",
      "outputs": [
        {
          "components": [
            {
              "internalType": "uint256",
              "name": "id",
              "type": "uint256"
            },
            {
              "internalType": "address",
              "name": "nftContract",
              "type": "address"
            },
            {
              "internalType": "uint256",
              "name": "tokenId",
              "type": "uint256"
            },
            {
              "internalType": "address payable",
              "name": "seller",
              "type": "address"
            },
            {
              "internalType": "address payable",
              "name": "buyer",
              "type": "address"
            },
            {
              "internalType": "uint256",
              "name": "price",
              "type": "uint256"
            },
            {
              "internalType": "enum NFTMarketplace.State",
              "name": "state",
              "type": "uint8"
            }
          ],
          "internalType": "struct NFTMarketplace.MarketItem[]",
          "name": "",
          "type": "tuple[]"
        }
      ],
      "stateMutability": "view",
      "type": "function"
    },
    {
      "inputs": [],
      "name": "fetchMyCreatedItems",
      "outputs": [
        {
          "components": [
            {
              "internalType": "uint256",
              "name": "id",
              "type": "uint256"
            },
            {
              "internalType": "address",
              "name": "nftContract",
              "type": "address"
            },
            {
              "internalType": "uint256",
              "name": "tokenId",
              "type": "uint256"
            },
            {
              "internalType": "address payable",
              "name": "seller",
              "type": "address"
            },
            {
              "internalType": "address payable",
              "name": "buyer",
              "type": "address"
            },
            {
              "internalType": "uint256",
              "name": "price",
              "type": "uint256"
            },
            {
              "internalType": "enum NFTMarketplace.State",
              "name": "state",
              "type": "uint8"
            }
          ],
          "internalType": "struct NFTMarketplace.MarketItem[]",
          "name": "",
          "type": "tuple[]"
        }
      ],
      "stateMutability": "view",
      "type": "function"
    },
    {
      "inputs": [],
      "name": "fetchMyPurchasedItems",
      "outputs": [
        {
          "components": [
            {
              "internalType": "uint256",
              "name": "id",
              "type": "uint256"
            },
            {
              "internalType": "address",
              "name": "nftContract",
              "type": "address"
            },
            {
              "internalType": "uint256",
              "name": "tokenId",
              "type": "uint256"
            },
            {
              "internalType": "address payable",
              "name": "seller",
              "type": "address"
            },
            {
              "internalType": "address payable",
              "name": "buyer",
              "type": "address"
            },
            {
              "internalType": "uint256",
              "name": "price",
              "type": "uint256"
            },
            {
              "internalType": "enum NFTMarketplace.State",
              "name": "state",
              "type": "uint8"
            }
          ],
          "internalType": "struct NFTMarketplace.MarketItem[]",
          "name": "",
          "type": "tuple[]"
        }
      ],
      "stateMutability": "view",
      "type": "function"
    },
    {
      "inputs": [],
      "name": "getListingPrice",
      "outputs": [
        {
          "internalType": "uint256",
          "name": "",
          "type": "uint256"
        }
      ],
      "stateMutability": "view",
      "type": "function"
    },
    {
      "inputs": [],
      "name": "listingPrice",
      "outputs": [
        {
          "internalType": "uint256",
          "name": "",
          "type": "uint256"
        }
      ],
      "stateMutability": "view",
      "type": "function"
    },
    {
      "inputs": [],
      "name": "marketowner",
      "outputs": [
        {
          "internalType": "address payable",
          "name": "",
          "type": "address"
        }
      ],
      "stateMutability": "view",
      "type": "function"
    },
    {
      "inputs": [],
      "name": "owner",
      "outputs": [
        {
          "internalType": "address",
          "name": "",
          "type": "address"
        }
      ],
      "stateMutability": "view",
      "type": "function"
    },
    {
      "inputs": [],
      "name": "renounceOwnership",
      "outputs": [],
      "stateMutability": "nonpayable",
      "type": "function"
    },
    {
      "inputs": [
        {
          "internalType": "uint256",
          "name": "_listingPrice",
          "type": "uint256"
        }
      ],
      "name": "setListingPrice",
      "outputs": [],
      "stateMutability": "nonpayable",
      "type": "function"
    },
    {
      "inputs": [
        {
          "internalType": "address",
          "name": "newOwner",
          "type": "address"
        }
      ],
      "name": "transferOwnership",
      "outputs": [],
      "stateMutability": "nonpayable",
      "type": "function"
    }
  ],
  "bytecode": "0x60806040526658d15e176280006005553480156200001c57600080fd5b50600160008190555062000045620000396200008c60201b60201c565b6200009460201b60201c565b33600460006101000a81548173ffffffffffffffffffffffffffffffffffffffff021916908373ffffffffffffffffffffffffffffffffffffffff1602179055506200015a565b600033905090565b6000600160009054906101000a900473ffffffffffffffffffffffffffffffffffffffff16905081600160006101000a81548173ffffffffffffffffffffffffffffffffffffffff021916908373ffffffffffffffffffffffffffffffffffffffff1602179055508173ffffffffffffffffffffffffffffffffffffffff168173ffffffffffffffffffffffffffffffffffffffff167f8be0079c531659141344cd1fd0a4f28419497f9722a3daafe3b4186f6b6457e060405160405180910390a35050565b612a23806200016a6000396000f3fe6080604052600436106100c25760003560e01c80638da5cb5b1161007f578063c23b139e11610059578063c23b139e14610223578063c78f19f91461023f578063ef8da9da1461026a578063f2fde38b14610295576100c2565b80638da5cb5b146101a4578063a9c07145146101cf578063ab76ce16146101f8576100c2565b806312e85585146100c7578063332b386b146100f257806358eb2df51461011d5780635e385b9214610139578063715018a6146101645780637c726b691461017b575b600080fd5b3480156100d357600080fd5b506100dc6102be565b6040516100e991906125fe565b60405180910390f35b3480156100fe57600080fd5b506101076102c8565b604051610114919061249c565b60405180910390f35b61013760048036038101906101329190611ff0565b6102d9565b005b34801561014557600080fd5b5061014e610730565b60405161015b919061237b565b60405180910390f35b34801561017057600080fd5b50610179610756565b005b34801561018757600080fd5b506101a2600480360381019061019d919061203f565b6107de565b005b3480156101b057600080fd5b506101b9610864565b6040516101c69190612360565b60405180910390f35b3480156101db57600080fd5b506101f660048036038101906101f1919061203f565b61088e565b005b34801561020457600080fd5b5061020d610d54565b60405161021a919061249c565b60405180910390f35b61023d60048036038101906102389190611fb4565b610d65565b005b34801561024b57600080fd5b506102546111a7565b60405161026191906125fe565b60405180910390f35b34801561027657600080fd5b5061027f6111ad565b60405161028c919061249c565b60405180910390f35b3480156102a157600080fd5b506102bc60048036038101906102b79190611f62565b6111be565b005b6000600554905090565b60606102d460006112b6565b905090565b6002600054141561031f576040517f08c379a0000000000000000000000000000000000000000000000000000000008152600401610316906125be565b60405180910390fd5b60026000819055506000811161036a576040517f08c379a0000000000000000000000000000000000000000000000000000000008152600401610361906125de565b60405180910390fd5b60055434146103ae576040517f08c379a00000000000000000000000000000000000000000000000000000000081526004016103a5906124fe565b60405180910390fd5b3073ffffffffffffffffffffffffffffffffffffffff168373ffffffffffffffffffffffffffffffffffffffff1663081812fc846040518263ffffffff1660e01b81526004016103fe91906125fe565b60206040518083038186803b15801561041657600080fd5b505afa15801561042a573d6000803e3d6000fd5b505050506040513d601f19601f8201168201806040525081019061044e9190611f8b565b73ffffffffffffffffffffffffffffffffffffffff16146104a4576040517f08c379a000000000000000000000000000000000000000000000000000000000815260040161049b9061259e565b60405180910390fd5b6104ae6002611963565b60006104ba6002611979565b90506040518060e001604052808281526020018573ffffffffffffffffffffffffffffffffffffffff1681526020018481526020013373ffffffffffffffffffffffffffffffffffffffff168152602001600073ffffffffffffffffffffffffffffffffffffffff16815260200183815260200160006002811115610568577f4e487b7100000000000000000000000000000000000000000000000000000000600052602160045260246000fd5b815250600660008381526020019081526020016000206000820151816000015560208201518160010160006101000a81548173ffffffffffffffffffffffffffffffffffffffff021916908373ffffffffffffffffffffffffffffffffffffffff1602179055506040820151816002015560608201518160030160006101000a81548173ffffffffffffffffffffffffffffffffffffffff021916908373ffffffffffffffffffffffffffffffffffffffff16021790555060808201518160040160006101000a81548173ffffffffffffffffffffffffffffffffffffffff021916908373ffffffffffffffffffffffffffffffffffffffff16021790555060a0820151816005015560c08201518160060160006101000a81548160ff021916908360028111156106c2577f4e487b7100000000000000000000000000000000000000000000000000000000600052602160045260246000fd5b0217905550905050828473ffffffffffffffffffffffffffffffffffffffff16827fb0a8dcfc08f1150d20def3c46440be585f61cce1bdbb0fdf16bc597f471c6e7033600087600060405161071a9493929190612457565b60405180910390a4506001600081905550505050565b600460009054906101000a900473ffffffffffffffffffffffffffffffffffffffff1681565b61075e611987565b73ffffffffffffffffffffffffffffffffffffffff1661077c610864565b73ffffffffffffffffffffffffffffffffffffffff16146107d2576040517f08c379a00000000000000000000000000000000000000000000000000000000081526004016107c99061253e565b60405180910390fd5b6107dc600061198f565b565b6107e6611987565b73ffffffffffffffffffffffffffffffffffffffff16610804610864565b73ffffffffffffffffffffffffffffffffffffffff161461085a576040517f08c379a00000000000000000000000000000000000000000000000000000000081526004016108519061253e565b60405180910390fd5b8060058190555050565b6000600160009054906101000a900473ffffffffffffffffffffffffffffffffffffffff16905090565b600260005414156108d4576040517f08c379a00000000000000000000000000000000000000000000000000000000081526004016108cb906125be565b60405180910390fd5b60026000819055506108e66002611979565b811115610928576040517f08c379a000000000000000000000000000000000000000000000000000000000815260040161091f9061251e565b60405180910390fd5b60006002811115610962577f4e487b7100000000000000000000000000000000000000000000000000000000600052602160045260246000fd5b6006600083815260200190815260200160002060060160009054906101000a900460ff1660028111156109be577f4e487b7100000000000000000000000000000000000000000000000000000000600052602160045260246000fd5b146109fe576040517f08c379a00000000000000000000000000000000000000000000000000000000081526004016109f5906124de565b60405180910390fd5b60006006600083815260200190815260200160002090503373ffffffffffffffffffffffffffffffffffffffff168160010160009054906101000a900473ffffffffffffffffffffffffffffffffffffffff1673ffffffffffffffffffffffffffffffffffffffff16636352211e83600201546040518263ffffffff1660e01b8152600401610a8d91906125fe565b60206040518083038186803b158015610aa557600080fd5b505afa158015610ab9573d6000803e3d6000fd5b505050506040513d601f19601f82011682018060405250810190610add9190611f8b565b73ffffffffffffffffffffffffffffffffffffffff1614610b33576040517f08c379a0000000000000000000000000000000000000000000000000000000008152600401610b2a9061255e565b60405180910390fd5b3073ffffffffffffffffffffffffffffffffffffffff168160010160009054906101000a900473ffffffffffffffffffffffffffffffffffffffff1673ffffffffffffffffffffffffffffffffffffffff1663081812fc83600201546040518263ffffffff1660e01b8152600401610bab91906125fe565b60206040518083038186803b158015610bc357600080fd5b505afa158015610bd7573d6000803e3d6000fd5b505050506040513d601f19601f82011682018060405250810190610bfb9190611f8b565b73ffffffffffffffffffffffffffffffffffffffff1614610c51576040517f08c379a0000000000000000000000000000000000000000000000000000000008152600401610c489061259e565b60405180910390fd5b60028160060160006101000a81548160ff02191690836002811115610c9f577f4e487b7100000000000000000000000000000000000000000000000000000000600052602160045260246000fd5b021790555080600201548160010160009054906101000a900473ffffffffffffffffffffffffffffffffffffffff1673ffffffffffffffffffffffffffffffffffffffff16837f064a9702da2c4a0a9af4cabda06e4715203ed7b0b3bb67eca6d3168e1c519bff8460030160009054906101000a900473ffffffffffffffffffffffffffffffffffffffff166000806002604051610d409493929190612396565b60405180910390a450600160008190555050565b6060610d6060016112b6565b905090565b60026000541415610dab576040517f08c379a0000000000000000000000000000000000000000000000000000000008152600401610da2906125be565b60405180910390fd5b60026000819055506000600660008381526020019081526020016000209050600081600501549050600082600201549050813414610e1e576040517f08c379a0000000000000000000000000000000000000000000000000000000008152600401610e159061257e565b60405180910390fd5b3073ffffffffffffffffffffffffffffffffffffffff168573ffffffffffffffffffffffffffffffffffffffff1663081812fc836040518263ffffffff1660e01b8152600401610e6e91906125fe565b60206040518083038186803b158015610e8657600080fd5b505afa158015610e9a573d6000803e3d6000fd5b505050506040513d601f19601f82011682018060405250810190610ebe9190611f8b565b73ffffffffffffffffffffffffffffffffffffffff1614610f14576040517f08c379a0000000000000000000000000000000000000000000000000000000008152600401610f0b9061259e565b60405180910390fd5b8473ffffffffffffffffffffffffffffffffffffffff166323b872dd8460030160009054906101000a900473ffffffffffffffffffffffffffffffffffffffff1633846040518463ffffffff1660e01b8152600401610f75939291906123db565b600060405180830381600087803b158015610f8f57600080fd5b505af1158015610fa3573d6000803e3d6000fd5b50505050600460009054906101000a900473ffffffffffffffffffffffffffffffffffffffff1673ffffffffffffffffffffffffffffffffffffffff166108fc6005549081150290604051600060405180830381858888f19350505050158015611011573d6000803e3d6000fd5b508260030160009054906101000a900473ffffffffffffffffffffffffffffffffffffffff1673ffffffffffffffffffffffffffffffffffffffff166108fc349081150290604051600060405180830381858888f1935050505015801561107c573d6000803e3d6000fd5b50338360040160006101000a81548173ffffffffffffffffffffffffffffffffffffffff021916908373ffffffffffffffffffffffffffffffffffffffff16021790555060018360060160006101000a81548160ff0219169083600281111561110e577f4e487b7100000000000000000000000000000000000000000000000000000000600052602160045260246000fd5b021790555061111d6003611963565b808573ffffffffffffffffffffffffffffffffffffffff16857f064a9702da2c4a0a9af4cabda06e4715203ed7b0b3bb67eca6d3168e1c519bff8660030160009054906101000a900473ffffffffffffffffffffffffffffffffffffffff16338760016040516111909493929190612412565b60405180910390a450505060016000819055505050565b60055481565b60606111b960026112b6565b905090565b6111c6611987565b73ffffffffffffffffffffffffffffffffffffffff166111e4610864565b73ffffffffffffffffffffffffffffffffffffffff161461123a576040517f08c379a00000000000000000000000000000000000000000000000000000000081526004016112319061253e565b60405180910390fd5b600073ffffffffffffffffffffffffffffffffffffffff168173ffffffffffffffffffffffffffffffffffffffff1614156112aa576040517f08c379a00000000000000000000000000000000000000000000000000000000081526004016112a1906124be565b60405180910390fd5b6112b38161198f565b50565b606060006112c46002611979565b9050600080600190505b8281116114ca576114a3600660008381526020019081526020016000206040518060e0016040529081600082015481526020016001820160009054906101000a900473ffffffffffffffffffffffffffffffffffffffff1673ffffffffffffffffffffffffffffffffffffffff1673ffffffffffffffffffffffffffffffffffffffff168152602001600282015481526020016003820160009054906101000a900473ffffffffffffffffffffffffffffffffffffffff1673ffffffffffffffffffffffffffffffffffffffff1673ffffffffffffffffffffffffffffffffffffffff1681526020016004820160009054906101000a900473ffffffffffffffffffffffffffffffffffffffff1673ffffffffffffffffffffffffffffffffffffffff1673ffffffffffffffffffffffffffffffffffffffff168152602001600582015481526020016006820160009054906101000a900460ff166002811115611461577f4e487b7100000000000000000000000000000000000000000000000000000000600052602160045260246000fd5b6002811115611499577f4e487b7100000000000000000000000000000000000000000000000000000000600052602160045260246000fd5b8152505086611a55565b156114b75781806114b39061271e565b9250505b80806114c29061271e565b9150506112ce565b506000808267ffffffffffffffff81111561150e577f4e487b7100000000000000000000000000000000000000000000000000000000600052604160045260246000fd5b60405190808252806020026020018201604052801561154757816020015b611534611e6c565b81526020019060019003908161152c5790505b5090506000600190505b84811161195657611726600660008381526020019081526020016000206040518060e0016040529081600082015481526020016001820160009054906101000a900473ffffffffffffffffffffffffffffffffffffffff1673ffffffffffffffffffffffffffffffffffffffff1673ffffffffffffffffffffffffffffffffffffffff168152602001600282015481526020016003820160009054906101000a900473ffffffffffffffffffffffffffffffffffffffff1673ffffffffffffffffffffffffffffffffffffffff1673ffffffffffffffffffffffffffffffffffffffff1681526020016004820160009054906101000a900473ffffffffffffffffffffffffffffffffffffffff1673ffffffffffffffffffffffffffffffffffffffff1673ffffffffffffffffffffffffffffffffffffffff168152602001600582015481526020016006820160009054906101000a900460ff1660028111156116e4577f4e487b7100000000000000000000000000000000000000000000000000000000600052602160045260246000fd5b600281111561171c577f4e487b7100000000000000000000000000000000000000000000000000000000600052602160045260246000fd5b8152505088611a55565b1561194357600660008281526020019081526020016000206040518060e0016040529081600082015481526020016001820160009054906101000a900473ffffffffffffffffffffffffffffffffffffffff1673ffffffffffffffffffffffffffffffffffffffff1673ffffffffffffffffffffffffffffffffffffffff168152602001600282015481526020016003820160009054906101000a900473ffffffffffffffffffffffffffffffffffffffff1673ffffffffffffffffffffffffffffffffffffffff1673ffffffffffffffffffffffffffffffffffffffff1681526020016004820160009054906101000a900473ffffffffffffffffffffffffffffffffffffffff1673ffffffffffffffffffffffffffffffffffffffff1673ffffffffffffffffffffffffffffffffffffffff168152602001600582015481526020016006820160009054906101000a900460ff1660028111156118b4577f4e487b7100000000000000000000000000000000000000000000000000000000600052602160045260246000fd5b60028111156118ec577f4e487b7100000000000000000000000000000000000000000000000000000000600052602160045260246000fd5b81525050828481518110611929577f4e487b7100000000000000000000000000000000000000000000000000000000600052603260045260246000fd5b6020026020010181905250828061193f9061271e565b9350505b808061194e9061271e565b915050611551565b5080945050505050919050565b6001816000016000828254019250508190555050565b600081600001549050919050565b600033905090565b6000600160009054906101000a900473ffffffffffffffffffffffffffffffffffffffff16905081600160006101000a81548173ffffffffffffffffffffffffffffffffffffffff021916908373ffffffffffffffffffffffffffffffffffffffff1602179055508173ffffffffffffffffffffffffffffffffffffffff168173ffffffffffffffffffffffffffffffffffffffff167f8be0079c531659141344cd1fd0a4f28419497f9722a3daafe3b4186f6b6457e060405160405180910390a35050565b6000600280811115611a90577f4e487b7100000000000000000000000000000000000000000000000000000000600052602160045260246000fd5b826002811115611ac9577f4e487b7100000000000000000000000000000000000000000000000000000000600052602160045260246000fd5b1415611b97573373ffffffffffffffffffffffffffffffffffffffff16836060015173ffffffffffffffffffffffffffffffffffffffff16148015611b825750600280811115611b42577f4e487b7100000000000000000000000000000000000000000000000000000000600052602160045260246000fd5b8360c001516002811115611b7f577f4e487b7100000000000000000000000000000000000000000000000000000000600052602160045260246000fd5b14155b611b8d576000611b90565b60015b9050611e66565b60016002811115611bd1577f4e487b7100000000000000000000000000000000000000000000000000000000600052602160045260246000fd5b826002811115611c0a577f4e487b7100000000000000000000000000000000000000000000000000000000600052602160045260246000fd5b1415611c58573373ffffffffffffffffffffffffffffffffffffffff16836080015173ffffffffffffffffffffffffffffffffffffffff1614611c4e576000611c51565b60015b9050611e66565b60006002811115611c92577f4e487b7100000000000000000000000000000000000000000000000000000000600052602160045260246000fd5b826002811115611ccb577f4e487b7100000000000000000000000000000000000000000000000000000000600052602160045260246000fd5b1415611e6157600073ffffffffffffffffffffffffffffffffffffffff16836080015173ffffffffffffffffffffffffffffffffffffffff16148015611d85575060006002811115611d46577f4e487b7100000000000000000000000000000000000000000000000000000000600052602160045260246000fd5b8360c001516002811115611d83577f4e487b7100000000000000000000000000000000000000000000000000000000600052602160045260246000fd5b145b8015611e4c57503073ffffffffffffffffffffffffffffffffffffffff16836020015173ffffffffffffffffffffffffffffffffffffffff1663081812fc85604001516040518263ffffffff1660e01b8152600401611de491906125fe565b60206040518083038186803b158015611dfc57600080fd5b505afa158015611e10573d6000803e3d6000fd5b505050506040513d601f19601f82011682018060405250810190611e349190611f8b565b73ffffffffffffffffffffffffffffffffffffffff16145b611e57576000611e5a565b60015b9050611e66565b600090505b92915050565b6040518060e0016040528060008152602001600073ffffffffffffffffffffffffffffffffffffffff16815260200160008152602001600073ffffffffffffffffffffffffffffffffffffffff168152602001600073ffffffffffffffffffffffffffffffffffffffff1681526020016000815260200160006002811115611f1d577f4e487b7100000000000000000000000000000000000000000000000000000000600052602160045260246000fd5b81525090565b600081359050611f32816129bf565b92915050565b600081519050611f47816129bf565b92915050565b600081359050611f5c816129d6565b92915050565b600060208284031215611f7457600080fd5b6000611f8284828501611f23565b91505092915050565b600060208284031215611f9d57600080fd5b6000611fab84828501611f38565b91505092915050565b60008060408385031215611fc757600080fd5b6000611fd585828601611f23565b9250506020611fe685828601611f4d565b9150509250929050565b60008060006060848603121561200557600080fd5b600061201386828701611f23565b935050602061202486828701611f4d565b925050604061203586828701611f4d565b9150509250925092565b60006020828403121561205157600080fd5b600061205f84828501611f4d565b91505092915050565b600061207483836122b4565b60e08301905092915050565b612089816126c4565b82525050565b61209881612675565b82525050565b6120a781612675565b82525050565b6120b681612663565b82525050565b6120c581612663565b82525050565b60006120d682612629565b6120e08185612641565b93506120eb83612619565b8060005b8381101561211c5781516121038882612068565b975061210e83612634565b9250506001810190506120ef565b5085935050505092915050565b612132816126d6565b82525050565b612141816126d6565b82525050565b612150816126e8565b82525050565b6000612163602683612652565b915061216e826127c5565b604082019050919050565b6000612186601783612652565b915061219182612814565b602082019050919050565b60006121a9602483612652565b91506121b48261283d565b604082019050919050565b60006121cc601683612652565b91506121d78261288c565b602082019050919050565b60006121ef602083612652565b91506121fa826128b5565b602082019050919050565b6000612212601283612652565b915061221d826128de565b602082019050919050565b6000612235601f83612652565b915061224082612907565b602082019050919050565b6000612258601f83612652565b915061226382612930565b602082019050919050565b600061227b601f83612652565b915061228682612959565b602082019050919050565b600061229e601d83612652565b91506122a982612982565b602082019050919050565b60e0820160008201516122ca6000850182612342565b5060208201516122dd60208501826120ad565b5060408201516122f06040850182612342565b506060820151612303606085018261208f565b506080820151612316608085018261208f565b5060a082015161232960a0850182612342565b5060c082015161233c60c0850182612129565b50505050565b61234b816126ba565b82525050565b61235a816126ba565b82525050565b600060208201905061237560008301846120bc565b92915050565b6000602082019050612390600083018461209e565b92915050565b60006080820190506123ab6000830187612080565b6123b860208301866120bc565b6123c56040830185612147565b6123d26060830184612138565b95945050505050565b60006060820190506123f06000830186612080565b6123fd60208301856120bc565b61240a6040830184612351565b949350505050565b60006080820190506124276000830187612080565b61243460208301866120bc565b6124416040830185612351565b61244e6060830184612138565b95945050505050565b600060808201905061246c60008301876120bc565b61247960208301866120bc565b6124866040830185612351565b6124936060830184612138565b95945050505050565b600060208201905081810360008301526124b681846120cb565b905092915050565b600060208201905081810360008301526124d781612156565b9050919050565b600060208201905081810360008301526124f781612179565b9050919050565b600060208201905081810360008301526125178161219c565b9050919050565b60006020820190508181036000830152612537816121bf565b9050919050565b60006020820190508181036000830152612557816121e2565b9050919050565b6000602082019050818103600083015261257781612205565b9050919050565b6000602082019050818103600083015261259781612228565b9050919050565b600060208201905081810360008301526125b78161224b565b9050919050565b600060208201905081810360008301526125d78161226e565b9050919050565b600060208201905081810360008301526125f781612291565b9050919050565b60006020820190506126136000830184612351565b92915050565b6000819050602082019050919050565b600081519050919050565b6000602082019050919050565b600082825260208201905092915050565b600082825260208201905092915050565b600061266e8261269a565b9050919050565b60006126808261269a565b9050919050565b6000819050612695826129ab565b919050565b600073ffffffffffffffffffffffffffffffffffffffff82169050919050565b6000819050919050565b60006126cf826126fa565b9050919050565b60006126e182612687565b9050919050565b60006126f3826126ba565b9050919050565b60006127058261270c565b9050919050565b60006127178261269a565b9050919050565b6000612729826126ba565b91507fffffffffffffffffffffffffffffffffffffffffffffffffffffffffffffffff82141561275c5761275b612767565b5b600182019050919050565b7f4e487b7100000000000000000000000000000000000000000000000000000000600052601160045260246000fd5b7f4e487b7100000000000000000000000000000000000000000000000000000000600052602160045260246000fd5b7f4f776e61626c653a206e6577206f776e657220697320746865207a65726f206160008201527f6464726573730000000000000000000000000000000000000000000000000000602082015250565b7f4974656d206d757374206265206f6e206d61726b657421000000000000000000600082015250565b7f5072696365206d757420626520657175616c20746f206c697374696e6720707260008201527f6963652100000000000000000000000000000000000000000000000000000000602082015250565b7f6964206d757374203c3d206974656d20636f756e742100000000000000000000600082015250565b7f4f776e61626c653a2063616c6c6572206973206e6f7420746865206f776e6572600082015250565b7f6d75737420626520746865206f776e6572210000000000000000000000000000600082015250565b7f506c65617365207375626d6974207468652061736b696e672070726963652100600082015250565b7f4e4654206d75737420626520617070726f76656420746f206d61726b65742100600082015250565b7f5265656e7472616e637947756172643a207265656e7472616e742063616c6c00600082015250565b7f5072696365206d757374206265206174206c6561737420312077656921000000600082015250565b600381106129bc576129bb612796565b5b50565b6129c881612663565b81146129d357600080fd5b50565b6129df816126ba565b81146129ea57600080fd5b5056fea2646970667358221220d6aa20581ae4f48b5f267fe5bcea72a64c1301e34cdcfbb8089d488a64bc316b64736f6c63430008040033",
  "linkReferences": {},
  "deployedLinkReferences": {}
}